{
    "_format": "hh-sol-artifact-1",
    "contractName": "TrophyMinter",
    "sourceName": "contracts/TrophyMinter.sol",
    "abi": [
        {
            "inputs": [
                {
                    "internalType": "string",
                    "name": "baseURI",
                    "type": "string"
                },
                {
                    "internalType": "string",
                    "name": "_mainTable",
                    "type": "string"
                }
            ],
            "stateMutability": "payable",
            "type": "constructor"
        },
        {
            "inputs": [],
            "name": "Soulbound",
            "type": "error"
        },
        {
            "anonymous": false,
            "inputs": [
                {
                    "indexed": true,
                    "internalType": "address",
                    "name": "from",
                    "type": "address"
                },
                {
                    "indexed": true,
                    "internalType": "address",
                    "name": "to",
                    "type": "address"
                },
                {
                    "indexed": true,
                    "internalType": "uint256",
                    "name": "id",
                    "type": "uint256"
                }
            ],
            "name": "Transfer",
            "type": "event"
        },
        {
            "inputs": [
                {
                    "internalType": "address",
                    "name": "",
                    "type": "address"
                },
                {
                    "internalType": "uint256",
                    "name": "",
                    "type": "uint256"
                }
            ],
            "name": "approve",
            "outputs": [],
            "stateMutability": "nonpayable",
            "type": "function"
        },
        {
            "inputs": [
                {
                    "internalType": "address",
                    "name": "",
                    "type": "address"
                }
            ],
            "name": "balanceOf",
            "outputs": [
                {
                    "internalType": "uint256",
                    "name": "",
                    "type": "uint256"
                }
            ],
            "stateMutability": "view",
            "type": "function"
        },
        {
            "inputs": [],
            "name": "baseURIString",
            "outputs": [
                {
                    "internalType": "string",
                    "name": "",
                    "type": "string"
                }
            ],
            "stateMutability": "view",
            "type": "function"
        },
        {
            "inputs": [
                {
                    "internalType": "uint256",
                    "name": "",
                    "type": "uint256"
                }
            ],
            "name": "getApproved",
            "outputs": [],
            "stateMutability": "pure",
            "type": "function"
        },
        {
            "inputs": [
                {
                    "internalType": "address",
                    "name": "",
                    "type": "address"
                },
                {
                    "internalType": "address",
                    "name": "",
                    "type": "address"
                }
            ],
            "name": "isApprovedForAll",
            "outputs": [],
            "stateMutability": "pure",
            "type": "function"
        },
        {
            "inputs": [],
            "name": "mainTable",
            "outputs": [
                {
                    "internalType": "string",
                    "name": "",
                    "type": "string"
                }
            ],
            "stateMutability": "view",
            "type": "function"
        },
        {
            "inputs": [],
            "name": "mint",
            "outputs": [],
            "stateMutability": "payable",
            "type": "function"
        },
        {
            "inputs": [],
            "name": "name",
            "outputs": [
                {
                    "internalType": "string",
                    "name": "",
                    "type": "string"
                }
            ],
            "stateMutability": "view",
            "type": "function"
        },
        {
            "inputs": [],
            "name": "owner",
            "outputs": [
                {
                    "internalType": "address",
                    "name": "",
                    "type": "address"
                }
            ],
            "stateMutability": "view",
            "type": "function"
        },
        {
            "inputs": [
                {
                    "internalType": "uint256",
                    "name": "",
                    "type": "uint256"
                }
            ],
            "name": "ownerOf",
            "outputs": [
                {
                    "internalType": "address",
                    "name": "",
                    "type": "address"
                }
            ],
            "stateMutability": "view",
            "type": "function"
        },
        {
            "inputs": [
                {
                    "internalType": "address",
                    "name": "",
                    "type": "address"
                },
                {
                    "internalType": "address",
                    "name": "",
                    "type": "address"
                },
                {
                    "internalType": "uint256",
                    "name": "",
                    "type": "uint256"
                }
            ],
            "name": "safeTransferFrom",
            "outputs": [],
            "stateMutability": "nonpayable",
            "type": "function"
        },
        {
            "inputs": [
                {
                    "internalType": "address",
                    "name": "",
                    "type": "address"
                },
                {
                    "internalType": "address",
                    "name": "",
                    "type": "address"
                },
                {
                    "internalType": "uint256",
                    "name": "",
                    "type": "uint256"
                },
                {
                    "internalType": "bytes",
                    "name": "",
                    "type": "bytes"
                }
            ],
            "name": "safeTransferFrom",
            "outputs": [],
            "stateMutability": "nonpayable",
            "type": "function"
        },
        {
            "inputs": [
                {
                    "internalType": "address",
                    "name": "",
                    "type": "address"
                },
                {
                    "internalType": "bool",
                    "name": "",
                    "type": "bool"
                }
            ],
            "name": "setApprovalForAll",
            "outputs": [],
            "stateMutability": "nonpayable",
            "type": "function"
        },
        {
            "inputs": [
                {
                    "internalType": "bytes4",
                    "name": "interfaceId",
                    "type": "bytes4"
                }
            ],
            "name": "supportsInterface",
            "outputs": [
                {
                    "internalType": "bool",
                    "name": "",
                    "type": "bool"
                }
            ],
            "stateMutability": "pure",
            "type": "function"
        },
        {
            "inputs": [],
            "name": "symbol",
            "outputs": [
                {
                    "internalType": "string",
                    "name": "",
                    "type": "string"
                }
            ],
            "stateMutability": "view",
            "type": "function"
        },
        {
            "inputs": [
                {
                    "internalType": "uint256",
                    "name": "tokenId",
                    "type": "uint256"
                }
            ],
            "name": "tokenURI",
            "outputs": [
                {
                    "internalType": "string",
                    "name": "",
                    "type": "string"
                }
            ],
            "stateMutability": "view",
            "type": "function"
        },
        {
            "inputs": [
                {
                    "internalType": "address",
                    "name": "",
                    "type": "address"
                },
                {
                    "internalType": "address",
                    "name": "",
                    "type": "address"
                },
                {
                    "internalType": "uint256",
                    "name": "",
                    "type": "uint256"
                }
            ],
            "name": "transferFrom",
            "outputs": [],
            "stateMutability": "nonpayable",
            "type": "function"
        }
    ],
    "bytecode": "0x60a06040523373ffffffffffffffffffffffffffffffffffffffff1660809073ffffffffffffffffffffffffffffffffffffffff1660601b8152506001600255604051620019e0380380620019e08339818101604052810190620000649190620001c8565b6064600581905550816003908051906020019062000084929190620000a6565b5080600490805190602001906200009d929190620000a6565b505050620003ab565b828054620000b490620002d0565b90600052602060002090601f016020900481019282620000d8576000855562000124565b82601f10620000f357805160ff191683800117855562000124565b8280016001018555821562000124579182015b828111156200012357825182559160200191906001019062000106565b5b50905062000133919062000137565b5090565b5b808211156200015257600081600090555060010162000138565b5090565b60006200016d620001678462000264565b6200023b565b9050828152602081018484840111156200018657600080fd5b620001938482856200029a565b509392505050565b600082601f830112620001ad57600080fd5b8151620001bf84826020860162000156565b91505092915050565b60008060408385031215620001dc57600080fd5b600083015167ffffffffffffffff811115620001f757600080fd5b62000205858286016200019b565b925050602083015167ffffffffffffffff8111156200022357600080fd5b62000231858286016200019b565b9150509250929050565b6000620002476200025a565b905062000255828262000306565b919050565b6000604051905090565b600067ffffffffffffffff8211156200028257620002816200036b565b5b6200028d826200039a565b9050602081019050919050565b60005b83811015620002ba5780820151818401526020810190506200029d565b83811115620002ca576000848401525b50505050565b60006002820490506001821680620002e957607f821691505b602082108114156200030057620002ff6200033c565b5b50919050565b62000311826200039a565b810181811067ffffffffffffffff821117156200033357620003326200036b565b5b80604052505050565b7f4e487b7100000000000000000000000000000000000000000000000000000000600052602260045260246000fd5b7f4e487b7100000000000000000000000000000000000000000000000000000000600052604160045260246000fd5b6000601f19601f8301169050919050565b60805160601c611616620003ca600039600061077b01526116166000f3fe6080604052600436106100fe5760003560e01c80636352211e11610095578063a22cb46511610064578063a22cb46514610314578063b88d4fde1461033d578063c87b56dd14610366578063cf76a153146103a3578063e985e9c5146103ce576100fe565b80636352211e1461024457806370a08231146102815780638da5cb5b146102be57806395d89b41146102e9576100fe565b80631249c58b116100d15780631249c58b146101bd57806323b872dd146101c757806342842e0e146101f05780635d21260a14610219576100fe565b806301ffc9a71461010357806306fdde0314610140578063081812fc1461016b578063095ea7b314610194575b600080fd5b34801561010f57600080fd5b5061012a60048036038101906101259190610ec7565b6103f7565b6040516101379190611111565b60405180910390f35b34801561014c57600080fd5b50610155610489565b604051610162919061112c565b60405180910390f35b34801561017757600080fd5b50610192600480360381019061018d9190610ef0565b6104c2565b005b3480156101a057600080fd5b506101bb60048036038101906101b69190610e8b565b6104f4565b005b6101c5610526565b005b3480156101d357600080fd5b506101ee60048036038101906101e99190610d80565b61063c565b005b3480156101fc57600080fd5b5061021760048036038101906102129190610d80565b61066e565b005b34801561022557600080fd5b5061022e6106a0565b60405161023b919061112c565b60405180910390f35b34801561025057600080fd5b5061026b60048036038101906102669190610ef0565b61072e565b60405161027891906110f6565b60405180910390f35b34801561028d57600080fd5b506102a860048036038101906102a39190610d1b565b610761565b6040516102b5919061116e565b60405180910390f35b3480156102ca57600080fd5b506102d3610779565b6040516102e091906110f6565b60405180910390f35b3480156102f557600080fd5b506102fe61079d565b60405161030b919061112c565b60405180910390f35b34801561032057600080fd5b5061033b60048036038101906103369190610e4f565b6107d6565b005b34801561034957600080fd5b50610364600480360381019061035f9190610dcf565b610808565b005b34801561037257600080fd5b5061038d60048036038101906103889190610ef0565b61083a565b60405161039a919061112c565b60405180910390f35b3480156103af57600080fd5b506103b861090d565b6040516103c5919061112c565b60405180910390f35b3480156103da57600080fd5b506103f560048036038101906103f09190610d44565b61099b565b005b60006301ffc9a760e01b827bffffffffffffffffffffffffffffffffffffffffffffffffffffffff1916148061045257506380ac58cd60e01b827bffffffffffffffffffffffffffffffffffffffffffffffffffffffff1916145b806104825750635b5e139f60e01b827bffffffffffffffffffffffffffffffffffffffffffffffffffffffff1916145b9050919050565b6040518060400160405280601181526020017f50726f7020486f7573652054726f70687900000000000000000000000000000081525081565b6040517fa4420a9500000000000000000000000000000000000000000000000000000000815260040160405180910390fd5b6040517fa4420a9500000000000000000000000000000000000000000000000000000000815260040160405180910390fd5b600160003373ffffffffffffffffffffffffffffffffffffffff1673ffffffffffffffffffffffffffffffffffffffff1681526020019081526020016000206000815480929190600101919050555033600080600254815260200190815260200160002060006101000a81548173ffffffffffffffffffffffffffffffffffffffff021916908373ffffffffffffffffffffffffffffffffffffffff160217905550600260008154809291906105db90611359565b919050553373ffffffffffffffffffffffffffffffffffffffff16600073ffffffffffffffffffffffffffffffffffffffff167fddf252ad1be2c89b69c2b068fc378daa952ba7f163c4a11628f55a4df523b3ef60405160405180910390a4565b6040517fa4420a9500000000000000000000000000000000000000000000000000000000815260040160405180910390fd5b6040517fa4420a9500000000000000000000000000000000000000000000000000000000815260040160405180910390fd5b600480546106ad90611327565b80601f01602080910402602001604051908101604052809291908181526020018280546106d990611327565b80156107265780601f106106fb57610100808354040283529160200191610726565b820191906000526020600020905b81548152906001019060200180831161070957829003601f168201915b505050505081565b60006020528060005260406000206000915054906101000a900473ffffffffffffffffffffffffffffffffffffffff1681565b60016020528060005260406000206000915090505481565b7f000000000000000000000000000000000000000000000000000000000000000081565b6040518060400160405280600281526020017f505400000000000000000000000000000000000000000000000000000000000081525081565b6040517fa4420a9500000000000000000000000000000000000000000000000000000000815260040160405180910390fd5b6040517fa4420a9500000000000000000000000000000000000000000000000000000000815260040160405180910390fd5b6060610845826109cd565b610884576040517f08c379a000000000000000000000000000000000000000000000000000000000815260040161087b9061114e565b60405180910390fd5b600061088e610a3e565b90506000815114156108b25760405180602001604052806000815250915050610908565b600060046040516020016108c691906110c9565b604051602081830303815290604052905081816108e286610ad0565b6040516020016108f493929190611098565b604051602081830303815290604052925050505b919050565b6003805461091a90611327565b80601f016020809104026020016040519081016040528092919081815260200182805461094690611327565b80156109935780601f1061096857610100808354040283529160200191610993565b820191906000526020600020905b81548152906001019060200180831161097657829003601f168201915b505050505081565b6040517fa4420a9500000000000000000000000000000000000000000000000000000000815260040160405180910390fd5b60008060008084815260200190815260200160002060009054906101000a900473ffffffffffffffffffffffffffffffffffffffff169050600073ffffffffffffffffffffffffffffffffffffffff168173ffffffffffffffffffffffffffffffffffffffff161415915050919050565b606060038054610a4d90611327565b80601f0160208091040260200160405190810160405280929190818152602001828054610a7990611327565b8015610ac65780601f10610a9b57610100808354040283529160200191610ac6565b820191906000526020600020905b815481529060010190602001808311610aa957829003601f168201915b5050505050905090565b60606000821415610b18576040518060400160405280600181526020017f30000000000000000000000000000000000000000000000000000000000000008152509050610c78565b600082905060005b60008214610b4a578080610b3390611359565b915050600a82610b43919061121b565b9150610b20565b60008167ffffffffffffffff811115610b8c577f4e487b7100000000000000000000000000000000000000000000000000000000600052604160045260246000fd5b6040519080825280601f01601f191660200182016040528015610bbe5781602001600182028036833780820191505090505b5090505b60008514610c7157600182610bd7919061124c565b9150600a85610be691906113a2565b6030610bf291906111c5565b60f81b818381518110610c2e577f4e487b7100000000000000000000000000000000000000000000000000000000600052603260045260246000fd5b60200101907effffffffffffffffffffffffffffffffffffffffffffffffffffffffffffff1916908160001a905350600a85610c6a919061121b565b9450610bc2565b8093505050505b919050565b600081359050610c8c81611584565b92915050565b600081359050610ca18161159b565b92915050565b600081359050610cb6816115b2565b92915050565b60008083601f840112610cce57600080fd5b8235905067ffffffffffffffff811115610ce757600080fd5b602083019150836001820283011115610cff57600080fd5b9250929050565b600081359050610d15816115c9565b92915050565b600060208284031215610d2d57600080fd5b6000610d3b84828501610c7d565b91505092915050565b60008060408385031215610d5757600080fd5b6000610d6585828601610c7d565b9250506020610d7685828601610c7d565b9150509250929050565b600080600060608486031215610d9557600080fd5b6000610da386828701610c7d565b9350506020610db486828701610c7d565b9250506040610dc586828701610d06565b9150509250925092565b600080600080600060808688031215610de757600080fd5b6000610df588828901610c7d565b9550506020610e0688828901610c7d565b9450506040610e1788828901610d06565b935050606086013567ffffffffffffffff811115610e3457600080fd5b610e4088828901610cbc565b92509250509295509295909350565b60008060408385031215610e6257600080fd5b6000610e7085828601610c7d565b9250506020610e8185828601610c92565b9150509250929050565b60008060408385031215610e9e57600080fd5b6000610eac85828601610c7d565b9250506020610ebd85828601610d06565b9150509250929050565b600060208284031215610ed957600080fd5b6000610ee784828501610ca7565b91505092915050565b600060208284031215610f0257600080fd5b6000610f1084828501610d06565b91505092915050565b610f2281611280565b82525050565b610f3181611292565b82525050565b6000610f428261119e565b610f4c81856111a9565b9350610f5c8185602086016112f4565b610f6581611460565b840191505092915050565b6000610f7b8261119e565b610f8581856111ba565b9350610f958185602086016112f4565b80840191505092915050565b60008154610fae81611327565b610fb881866111ba565b94506001821660008114610fd35760018114610fe457611017565b60ff19831686528186019350611017565b610fed85611189565b60005b8381101561100f57815481890152600182019150602081019050610ff0565b838801955050505b50505092915050565b600061102d6077836111ba565b915061103882611471565b607782019050919050565b6000611050601a836111ba565b915061105b8261150c565b601a82019050919050565b6000611073602f836111a9565b915061107e82611535565b604082019050919050565b611092816112ea565b82525050565b60006110a48286610f70565b91506110b08285610f70565b91506110bc8284610f70565b9150819050949350505050565b60006110d482611020565b91506110e08284610fa1565b91506110eb82611043565b915081905092915050565b600060208201905061110b6000830184610f19565b92915050565b60006020820190506111266000830184610f28565b92915050565b600060208201905081810360008301526111468184610f37565b905092915050565b6000602082019050818103600083015261116781611066565b9050919050565b60006020820190506111836000830184611089565b92915050565b60008190508160005260206000209050919050565b600081519050919050565b600082825260208201905092915050565b600081905092915050565b60006111d0826112ea565b91506111db836112ea565b9250827fffffffffffffffffffffffffffffffffffffffffffffffffffffffffffffffff038211156112105761120f6113d3565b5b828201905092915050565b6000611226826112ea565b9150611231836112ea565b92508261124157611240611402565b5b828204905092915050565b6000611257826112ea565b9150611262836112ea565b925082821015611275576112746113d3565b5b828203905092915050565b600061128b826112ca565b9050919050565b60008115159050919050565b60007fffffffff0000000000000000000000000000000000000000000000000000000082169050919050565b600073ffffffffffffffffffffffffffffffffffffffff82169050919050565b6000819050919050565b60005b838110156113125780820151818401526020810190506112f7565b83811115611321576000848401525b50505050565b6000600282049050600182168061133f57607f821691505b6020821081141561135357611352611431565b5b50919050565b6000611364826112ea565b91507fffffffffffffffffffffffffffffffffffffffffffffffffffffffffffffffff821415611397576113966113d3565b5b600182019050919050565b60006113ad826112ea565b91506113b8836112ea565b9250826113c8576113c7611402565b5b828206905092915050565b7f4e487b7100000000000000000000000000000000000000000000000000000000600052601160045260246000fd5b7f4e487b7100000000000000000000000000000000000000000000000000000000600052601260045260246000fd5b7f4e487b7100000000000000000000000000000000000000000000000000000000600052602260045260246000fd5b6000601f19601f8301169050919050565b7f53454c4543542b6a736f6e5f6f626a656374253238253237696425323725324360008201527f69642532432532376e616d652532372532436e616d652532432532376465736360208201527f72697074696f6e2532372532436465736372697074696f6e253243253237696d60408201527f616765253237253243696d6167652532392b46524f4d2b000000000000000000606082015250565b7f2532456d61696e5f696425323057484552452532306964253344000000000000600082015250565b7f4552433732314d657461646174613a2055524920717565727920666f72206e6f60008201527f6e6578697374656e7420746f6b656e0000000000000000000000000000000000602082015250565b61158d81611280565b811461159857600080fd5b50565b6115a481611292565b81146115af57600080fd5b50565b6115bb8161129e565b81146115c657600080fd5b50565b6115d2816112ea565b81146115dd57600080fd5b5056fea2646970667358221220d598543845348a332da7561d39f139523539947ab2d16f9f46ee5ec20fd2d3b764736f6c63430008040033",
    "linkReferences": {},
    "deployedLinkReferences": {}
}